{
  "_format": "hh3-artifact-1",
  "contractName": "Market",
  "sourceName": "contracts/Market.sol",
  "abi": [
    {
      "anonymous": false,
      "inputs": [
        {
          "indexed": true,
          "internalType": "uint256",
          "name": "marketId",
          "type": "uint256"
        },
        {
          "indexed": true,
          "internalType": "address",
          "name": "bettor",
          "type": "address"
        },
        {
          "indexed": false,
          "internalType": "bool",
          "name": "isYes",
          "type": "bool"
        },
        {
          "indexed": false,
          "internalType": "uint256",
          "name": "shares",
          "type": "uint256"
        }
      ],
      "name": "BetPlaced",
      "type": "event"
    },
    {
      "anonymous": false,
      "inputs": [
        {
          "indexed": true,
          "internalType": "uint256",
          "name": "marketId",
          "type": "uint256"
        },
        {
          "indexed": true,
          "internalType": "address",
          "name": "owner",
          "type": "address"
        },
        {
          "indexed": false,
          "internalType": "string",
          "name": "question",
          "type": "string"
        }
      ],
      "name": "MarketCreated",
      "type": "event"
    },
    {
      "anonymous": false,
      "inputs": [
        {
          "indexed": true,
          "internalType": "uint256",
          "name": "marketId",
          "type": "uint256"
        },
        {
          "indexed": true,
          "internalType": "address",
          "name": "winner",
          "type": "address"
        },
        {
          "indexed": false,
          "internalType": "uint256",
          "name": "payout",
          "type": "uint256"
        }
      ],
      "name": "MarketSettled",
      "type": "event"
    },
    {
      "anonymous": false,
      "inputs": [
        {
          "indexed": true,
          "internalType": "uint256",
          "name": "marketId",
          "type": "uint256"
        },
        {
          "indexed": true,
          "internalType": "address",
          "name": "solver",
          "type": "address"
        },
        {
          "indexed": false,
          "internalType": "enum Market.Outcome",
          "name": "result",
          "type": "uint8"
        }
      ],
      "name": "MarketSolved",
      "type": "event"
    },
    {
      "inputs": [
        {
          "internalType": "string",
          "name": "question",
          "type": "string"
        },
        {
          "internalType": "contract IERC20",
          "name": "collateral",
          "type": "address"
        }
      ],
      "name": "createMarket",
      "outputs": [
        {
          "internalType": "uint256",
          "name": "",
          "type": "uint256"
        }
      ],
      "stateMutability": "nonpayable",
      "type": "function"
    },
    {
      "inputs": [
        {
          "internalType": "uint256",
          "name": "marketId",
          "type": "uint256"
        }
      ],
      "name": "getMarketById",
      "outputs": [
        {
          "internalType": "address",
          "name": "owner",
          "type": "address"
        },
        {
          "internalType": "string",
          "name": "question",
          "type": "string"
        },
        {
          "internalType": "contract IERC20",
          "name": "collateral",
          "type": "address"
        },
        {
          "internalType": "uint256",
          "name": "totalYesShares",
          "type": "uint256"
        },
        {
          "internalType": "uint256",
          "name": "totalNoShares",
          "type": "uint256"
        },
        {
          "internalType": "uint256",
          "name": "totalBalance",
          "type": "uint256"
        },
        {
          "internalType": "enum Market.Outcome",
          "name": "result",
          "type": "uint8"
        },
        {
          "internalType": "bool",
          "name": "resolved",
          "type": "bool"
        }
      ],
      "stateMutability": "view",
      "type": "function"
    },
    {
      "inputs": [],
      "name": "getMarketsCount",
      "outputs": [
        {
          "internalType": "uint256",
          "name": "",
          "type": "uint256"
        }
      ],
      "stateMutability": "view",
      "type": "function"
    },
    {
      "inputs": [
        {
          "internalType": "uint256",
          "name": "marketId",
          "type": "uint256"
        },
        {
          "internalType": "address",
          "name": "user",
          "type": "address"
        },
        {
          "internalType": "bool",
          "name": "isYes",
          "type": "bool"
        }
      ],
      "name": "getUserShares",
      "outputs": [
        {
          "internalType": "uint256",
          "name": "",
          "type": "uint256"
        }
      ],
      "stateMutability": "view",
      "type": "function"
    },
    {
      "inputs": [
        {
          "internalType": "uint256",
          "name": "",
          "type": "uint256"
        }
      ],
      "name": "markets",
      "outputs": [
        {
          "internalType": "address",
          "name": "owner",
          "type": "address"
        },
        {
          "internalType": "string",
          "name": "question",
          "type": "string"
        },
        {
          "internalType": "contract IERC20",
          "name": "collateral",
          "type": "address"
        },
        {
          "internalType": "uint256",
          "name": "totalYesShares",
          "type": "uint256"
        },
        {
          "internalType": "uint256",
          "name": "totalNoShares",
          "type": "uint256"
        },
        {
          "internalType": "uint256",
          "name": "totalBalance",
          "type": "uint256"
        },
        {
          "internalType": "enum Market.Outcome",
          "name": "result",
          "type": "uint8"
        },
        {
          "internalType": "bool",
          "name": "resolved",
          "type": "bool"
        }
      ],
      "stateMutability": "view",
      "type": "function"
    },
    {
      "inputs": [
        {
          "internalType": "uint256",
          "name": "marketId",
          "type": "uint256"
        },
        {
          "internalType": "bool",
          "name": "isYes",
          "type": "bool"
        },
        {
          "internalType": "uint256",
          "name": "betAmount",
          "type": "uint256"
        }
      ],
      "name": "placeBet",
      "outputs": [],
      "stateMutability": "nonpayable",
      "type": "function"
    },
    {
      "inputs": [
        {
          "internalType": "uint256",
          "name": "marketId",
          "type": "uint256"
        }
      ],
      "name": "settle",
      "outputs": [],
      "stateMutability": "nonpayable",
      "type": "function"
    },
    {
      "inputs": [
        {
          "internalType": "uint256",
          "name": "",
          "type": "uint256"
        },
        {
          "internalType": "bool",
          "name": "",
          "type": "bool"
        },
        {
          "internalType": "address",
          "name": "",
          "type": "address"
        }
      ],
      "name": "shares",
      "outputs": [
        {
          "internalType": "uint256",
          "name": "",
          "type": "uint256"
        }
      ],
      "stateMutability": "view",
      "type": "function"
    },
    {
      "inputs": [
        {
          "internalType": "uint256",
          "name": "marketId",
          "type": "uint256"
        },
        {
          "internalType": "enum Market.Outcome",
          "name": "result",
          "type": "uint8"
        }
      ],
      "name": "solveMarket",
      "outputs": [],
      "stateMutability": "nonpayable",
      "type": "function"
    }
  ],
  "bytecode": "0x6080604052348015600e575f5ffd5b5061121b8061001c5f395ff3fe608060405234801561000f575f5ffd5b5060043610610090575f3560e01c80638df82800116100635780638df8280014610113578063a239675314610126578063a8a9cfd11461014d578063b1283e771461017d578063bf1f167d14610190575f5ffd5b80631a38cac61461009457806327fa35c3146100a95780635b09d995146100bf578063691ed24114610100575b5f5ffd5b6100a76100a2366004610d4f565b6101a3565b005b5f545b6040519081526020015b60405180910390f35b6100ac6100cd366004610d98565b5f838152600160209081526040808320841515845282528083206001600160a01b03861684529091529020549392505050565b6100a761010e366004610dd7565b61036a565b6100a7610121366004610e08565b61053f565b610139610134366004610e08565b61082a565b6040516100b6989796959493929190610e53565b6100ac61015b366004610ed7565b600160209081525f938452604080852082529284528284209052825290205481565b61013961018b366004610e08565b610988565b6100ac61019e366004610f0b565b610a7a565b5f5f84815481106101b6576101b6610f7f565b5f918252602090912060079091020180549091506001600160a01b03166101f85760405162461bcd60e51b81526004016101ef90610f93565b60405180910390fd5b6006810154610100900460ff161561024c5760405162461bcd60e51b81526020600482015260176024820152761b585c9ad95d08185b1c9958591e481c995cdbdb1d9959604a1b60448201526064016101ef565b6002810154610266906001600160a01b0316333085610ba6565b81816005015f8282546102799190610fd6565b909155505082156102d75781816003015f8282546102979190610fd6565b90915550505f8481526001602081815260408084209284529181528183203384529052812080548492906102cc908490610fd6565b909155506103259050565b81816004015f8282546102ea9190610fd6565b90915550505f84815260016020908152604080832083805282528083203384529091528120805484929061031f908490610fd6565b90915550505b60408051841515815260208101849052339186917f4af71b021e799c62c158bd54636ca8da2fa26115a21a2dc6efe486ec104fd15f910160405180910390a350505050565b5f5f838154811061037d5761037d610f7f565b5f918252602090912060079091020180549091506001600160a01b03166103b65760405162461bcd60e51b81526004016101ef90610f93565b80546001600160a01b031633146104065760405162461bcd60e51b81526020600482015260146024820152736f6e6c79206f776e65722063616e20736f6c766560601b60448201526064016101ef565b6006810154610100900460ff161561045a5760405162461bcd60e51b81526020600482015260176024820152761b585c9ad95d08185b1c9958591e481c995cdbdb1d9959604a1b60448201526064016101ef565b5f82600181111561046d5761046d610e1f565b148061048a5750600182600181111561048857610488610e1f565b145b6104c85760405162461bcd60e51b815260206004820152600f60248201526e696e76616c6964206f7574636f6d6560881b60448201526064016101ef565b60068101805483919060ff1916600183818111156104e8576104e8610e1f565b021790555060068101805461ff001916610100179055604051339084907fe59ccb9dbbdcd1c9e36e314e45116c0594160710b7cfc197ed1dd620787f023e90610532908690610fef565b60405180910390a3505050565b5f5f828154811061055257610552610f7f565b5f918252602090912060079091020180549091506001600160a01b031661058b5760405162461bcd60e51b81526004016101ef90610f93565b6006810154610100900460ff166105e45760405162461bcd60e51b815260206004820152601b60248201527f6d61726b6574206d75737420626520736f6c766564206669727374000000000060448201526064016101ef565b5f8160050154116106375760405162461bcd60e51b815260206004820152601860248201527f6e6f2062616c616e636520746f2064697374726962757465000000000000000060448201526064016101ef565b600681015460ff165f8082600181111561065357610653610e1f565b1490505f8161066657836004015461066c565b83600301545b90505f81116106aa5760405162461bcd60e51b815260206004820152600a6024820152696e6f2077696e6e65727360b01b60448201526064016101ef565b5f858152600160209081526040808320851515845282528083203384529091529020548061071a5760405162461bcd60e51b815260206004820152601a60248201527f6e6f2077696e6e696e672073686172657320746f20636c61696d00000000000060448201526064016101ef565b5f8282876005015461072c9190610ffd565b6107369190611014565b90505f81116107755760405162461bcd60e51b815260206004820152600b60248201526a1e995c9bc81c185e5bdd5d60aa1b60448201526064016101ef565b5f86600501548211610787578161078d565b86600501545b5f89815260016020908152604080832089151584528252808320338452909152812081905560058901805492935083929091906107cb908490611033565b909155505060028701546107e9906001600160a01b03163383610c77565b604051818152339089907fbdadf4a04c418563e6d78426a1316f5f725659bb92e3efca1687873dc61d2ba99060200160405180910390a35050505050505050565b5f60605f5f5f5f5f5f5f80549050891061087e5760405162461bcd60e51b815260206004820152601560248201527413585c9ad95d08191bd95cc81b9bdd08195e1a5cdd605a1b60448201526064016101ef565b5f5f8a8154811061089157610891610f7f565b5f91825260209091206007909102018054600282015460038301546004840154600585015460068601546001870180549798506001600160a01b039687169790969095169460ff808316926101009004169087906108ee90611046565b80601f016020809104026020016040519081016040528092919081815260200182805461091a90611046565b80156109655780601f1061093c57610100808354040283529160200191610965565b820191905f5260205f20905b81548152906001019060200180831161094857829003601f168201915b505050505096509850985098509850985098509850985050919395975091939597565b5f8181548110610996575f80fd5b5f918252602090912060079091020180546001820180546001600160a01b039092169350906109c490611046565b80601f01602080910402602001604051908101604052809291908181526020018280546109f090611046565b8015610a3b5780601f10610a1257610100808354040283529160200191610a3b565b820191905f5260205f20905b815481529060010190602001808311610a1e57829003601f168201915b505050600284015460038501546004860154600587015460069097015495966001600160a01b0390931695919450925060ff8082169161010090041688565b5f6001600160a01b038216610ac35760405162461bcd60e51b815260206004820152600f60248201526e1e995c9bc818dbdb1b185d195c985b608a1b60448201526064016101ef565b5f80546001908101808355828052610adb9190611033565b90505f5f8281548110610af057610af0610f7f565b5f918252602090912060079091020180546001600160a01b03191633178155905060018101610b208688836110db565b506002810180546001600160a01b0319166001600160a01b0386161790555f6003820181905560048201819055600582015560068101805461ff0019169055604051339083907fb143feb0c79e12e29a00674ccaf4e7e613c6fbc3b56b99a0e353faee3c0b8f7890610b95908a908a90611195565b60405180910390a350949350505050565b6040516323b872dd60e01b81526001600160a01b0384811660048301528381166024830152604482018390525f91908616906323b872dd906064016020604051808303815f875af1158015610bfd573d5f5f3e3d5ffd5b505050506040513d601f19601f82011682018060405250810190610c2191906111c3565b905080610c705760405162461bcd60e51b815260206004820152601e60248201527f5361666545524332303a207472616e7366657246726f6d206661696c6564000060448201526064016101ef565b5050505050565b60405163a9059cbb60e01b81526001600160a01b038381166004830152602482018390525f919085169063a9059cbb906044016020604051808303815f875af1158015610cc6573d5f5f3e3d5ffd5b505050506040513d601f19601f82011682018060405250810190610cea91906111c3565b905080610d395760405162461bcd60e51b815260206004820152601a60248201527f5361666545524332303a207472616e73666572206661696c656400000000000060448201526064016101ef565b50505050565b8015158114610d4c575f5ffd5b50565b5f5f5f60608486031215610d61575f5ffd5b833592506020840135610d7381610d3f565b929592945050506040919091013590565b6001600160a01b0381168114610d4c575f5ffd5b5f5f5f60608486031215610daa575f5ffd5b833592506020840135610dbc81610d84565b91506040840135610dcc81610d3f565b809150509250925092565b5f5f60408385031215610de8575f5ffd5b82359150602083013560028110610dfd575f5ffd5b809150509250929050565b5f60208284031215610e18575f5ffd5b5035919050565b634e487b7160e01b5f52602160045260245ffd5b60028110610e4f57634e487b7160e01b5f52602160045260245ffd5b9052565b60018060a01b038916815261010060208201525f8851806101008401528060208b0161012085015e5f6101208285010152610120601f19601f83011684010191505060018060a01b03881660408301528660608301528560808301528460a0830152610ec260c0830185610e33565b82151560e08301529998505050505050505050565b5f5f5f60608486031215610ee9575f5ffd5b833592506020840135610efb81610d3f565b91506040840135610dcc81610d84565b5f5f5f60408486031215610f1d575f5ffd5b833567ffffffffffffffff811115610f33575f5ffd5b8401601f81018613610f43575f5ffd5b803567ffffffffffffffff811115610f59575f5ffd5b866020828401011115610f6a575f5ffd5b602091820194509250840135610dcc81610d84565b634e487b7160e01b5f52603260045260245ffd5b6020808252601590820152741b585c9ad95d08191bd95cc81b9bdd08195e1a5cdd605a1b604082015260600190565b634e487b7160e01b5f52601160045260245ffd5b80820180821115610fe957610fe9610fc2565b92915050565b60208101610fe98284610e33565b8082028115828204841417610fe957610fe9610fc2565b5f8261102e57634e487b7160e01b5f52601260045260245ffd5b500490565b81810381811115610fe957610fe9610fc2565b600181811c9082168061105a57607f821691505b60208210810361107857634e487b7160e01b5f52602260045260245ffd5b50919050565b634e487b7160e01b5f52604160045260245ffd5b601f8211156110d657805f5260205f20601f840160051c810160208510156110b75750805b601f840160051c820191505b81811015610c70575f81556001016110c3565b505050565b67ffffffffffffffff8311156110f3576110f361107e565b611107836111018354611046565b83611092565b5f601f841160018114611138575f85156111215750838201355b5f19600387901b1c1916600186901b178355610c70565b5f83815260208120601f198716915b828110156111675786850135825560209485019460019092019101611147565b5086821015611183575f1960f88860031b161c19848701351681555b505060018560011b0183555050505050565b60208152816020820152818360408301375f818301604090810191909152601f909201601f19160101919050565b5f602082840312156111d3575f5ffd5b81516111de81610d3f565b939250505056fea264697066735822122080ac808748409037b2036101b19a74fa057c11477504446de563b71586d8bddb64736f6c634300081c0033",
  "linkReferences": {},
  "deployedLinkReferences": {},
  "immutableReferences": {},
  "inputSourceName": "project/contracts/Market.sol",
  "buildInfoId": "solc-0_8_28-6ef110d12562f4cd026b438ea9fbf043be4babfe"
}